:0200000460009A
:100000004643464200000156000000000103030081
:1000100000000000000000000000000000000000E0
:1000200000000000000000000000000000000000D0
:1000300000000000000000000000000000000000C0
:1000400000000000010408000000000000000000A3
:100050000000800000000000000000000000000020
:100060000000000000000000000000000000000090
:100070000000000000000000000000000000000080
:10008000EB04180A063204260000000000000000FD
:10009000050404240000000000000000000000002F
:1000A0000000000000000000000000000000000050
:1000B0000604000000000000000000000000000036
:1000C0000000000000000000000000000000000030
:1000D00020041808000000000000000000000000DC
:1000E0000000000000000000000000000000000010
:1000F0000000000000000000000000000000000000
:10010000D8041808000000000000000000000000F3
:100110000204180804200000000000000000000095
:1001200000000000000000000000000000000000CF
:10013000600400000000000000000000000000005B
:1001400000000000000000000000000000000000AF
:10015000000000000000000000000000000000009F
:10016000000000000000000000000000000000008F
:10017000000000000000000000000000000000007F
:10018000000000000000000000000000000000006F
:10019000000000000000000000000000000000005F
:1001A000000000000000000000000000000000004F
:1001B000000000000000000000000000000000003F
:1001C000000100000010000001000000000000001D
:1001D000000001000000000000000000000000001E
:1001E000000000000000000000000000000000000F
:1001F00000000000000000000000000000000000FF
:10020000FFFFFFFFFFFFFFFFFFFFFFFFFFFFFFFFFE
:10021000FFFFFFFFFFFFFFFFFFFFFFFFFFFFFFFFEE
:10100000D10020432914006000000000000000000F
:10101000201000600010006000D40060000000009C
:101020000000006000E0000000000000FFFFFFFF84
:10103000FFFFFFFFFFFFFFFFFFFFFFFFFFFFFFFFC0
:10104000FFFFFFFFFFFFFFFFFFFFFFFFFFFFFFFFB0
:10105000FFFFFFFFFFFFFFFFFFFFFFFFFFFFFFFFA0
:10106000FFFFFFFFFFFFFFFFFFFFFFFFFFFFFFFF90
:10140000884207D0904205D251F8043B40F8043B93
:101410008242F9D8704700BF884204D2002340F8C6
:10142000043B8142FBD87047664B4FF42A01664A61
:1014300066482DE9F0475A641864654A99639546F1
:10144000BFF34F8FBFF36F8F00F030F9614B08206F
:10145000614A6249C3F854016148FFF7D1FF614A0C
:1014600061496248FFF7CCFF61496248FFF7D4FF4A
:10147000614C62494FF470000023614A086044F8EF
:1014800023200133B02BFAD15E4B80215E4A03F852
:10149000011B9342FBD14F4D4FF080385B494FF019
:1014A000FF325B4B0026DFF8A4A1DFF8A4911C609B
:1014B000C5F80481C5F800A1C5F8F480C5F8F0901E
:1014C0000B68544F43F4E0230B60FB693D4923F064
:1014D0007F0343F04003FB617B6A23F07F0343F00B
:1014E00040037B628A66CA660A674A6700F0E4F8CE
:1014F000494A4A4B6320A2630321E363484A494BAC
:10150000106000F160401E6042F8041C00F6A170FB
:101510004549464AC3F8082D0B68454A43F0807395
:101520000B601368434943F00103136003680B60C9
:1015300000F012FBC5F804813F48C5F800A1C5F8CA
:10154000F480C5F8F09000F07BFCF96E3B4A41F462
:1015500040513B4BF9661660C2F80861C2F8186149
:10156000C2F82861C2F838619A6BD20708D442F6F3
:101570001562344959651A659A6B42F001029A6303
:101580002F4A314C936843F00113936000F006F941
:1015900000F060F800F04CFC00F010FB00F088F860
:1015A0002368132BFCD900F097FB2368B3F5967FD3
:1015B000FBD300F07FF800F04FFC00F03DFC30BFA3
:1015C000FDE700BF00C00A40AFAAAAAA070020009A
:1015D0000000072000800D40B0960000501F006002
:1015E00000000000C01A002004B6006000000020C7
:1015F000A0200020C01A00200018002088ED00E084
:10160000D96F000000E400E0A0E400E024ED00E079
:1016100008ED00E000C00F409184000095840000B8
:1016200014E000E018E000E0FCED00E00000202005
:10163000001000E0E41F00200046C32300400840E3
:1016400000400D400000C056E81F00201B1018206D
:101650000C0D1113114B1249D86E0A4640F440305C
:1016600030B4D86640F23765D86EA02440F440709C
:10167000D8664D648C64936C1B06FCD4094B40F215
:101680003760A0211A4658649964936C13F0800364
:10169000FBD1054A137030BC704700BF00C00F403B
:1016A00000400C4000800C40FF1F0020704700BF2E
:1016B000704700BF704700BFF0B5244A0020244B9C
:1016C0004FF0100C234C1126DFF8C8E012272060E1
:1016D0000125C2F800C0C3F800E01660DFF8B8E0EA
:1016E0001D4EC3F800E01D4917601E6041F0150152
:1016F0001B4F1C4E17601E601B4F1C4E17601E6058
:101700001B4F11601B4E1C491F6016601B4F196058
:101710001B4E1C4917601E601B4F11601B4E1C495D
:101720001F60166019602560BFF34F8FBFF36F8F86
:10173000C3F8B001BFF34F8FBFF36F8F52F8883CEF
:1017400043F4403342F8883CF0BD00BF9CED00E01C
:10175000A0ED00E094ED00E009001000A0200020C2
:1017600013002000210002071400002025000813A8
:10177000090000101600202027000B13170000405E
:1017800033001013180000602F000B0719000070C1
:101790002F000B133F00001025000803F0B58D4B00
:1017A00018228D4E01208D4948F20C7E8C4D4FF051
:1017B000FF378C4C83B0C3F85C12C3F8605200252D
:1017C000C3F86412C3F868424FF40054C3F86C6263
:1017D0008549C3F87062C3F87462C3F87862834EB7
:1017E000DA661A675A679A67DA67C3F88020C3F81F
:1017F0008420C3F8882040F20562C1F82C03C1F8A8
:101800003003C1F83403C1F83803C1F83C03C1F810
:1018100050032946B36976481840764B034376480F
:10182000B361D6F8843043F00C03C6F88430022646
:10183000036833430360036803EA0E0E6F4B4EEAFE
:101840000303DFF8F0E103606D4B4760DEF80870DA
:101850003B406C4F43F000538360C36823F0780330
:10186000C360036A1F40684B3B43664F0362036AD1
:101870001F40654B3B43654F43628762C762DEF89A
:10188000B830634F23F03F0343F00103C0F8B83092
:10189000DEF8BC30DFF884E123F03F0343F00103BE
:1018A000C0F8BC30056104660767C0F88020446654
:1018B0004767C0F884200468564B24F00204564A57
:1018C0000460C0F818E0C66143F8041B9342FBD1E2
:1018D000494B1A68194642F001021A600B68464AE1
:1018E00013F00103FAD14D4E022540F2F56440F2A7
:1018F000664040F299414A4F966142F20146D561F5
:1019000040F23545C2F8004242F20124C2F810020A
:101910000120C2F820121146C2F8307207F15A476E
:10192000C2F8346207F51377C2F840523D4E3E4D7F
:10193000C2F85072C2F85462C2F86052C2F86442EF
:10194000C2F8A030C2F8A430C2F8B0004B692A4AED
:10195000DD07FBD5012300244FF48030114653618D
:10196000C2F8A040C2F8A400C2F8B0304B69224AC5
:10197000DC07FBD5012300244FF4003011465361EE
:10198000C2F8A040C2F8A400C2F8B0304B691A4AAD
:10199000D807FBD501230024244811465361C2F81F
:1019A000A040C2F8A400C2F8B0304B69124ADB076D
:1019B000FBD5D2F8003145F60D5121209BB2506184
:1019C0008B4239D01A4B00221A605A609A60DA6052
:1019D00003B0F0BD00801F40F9700100F9B00100B4
:1019E000F9100100F900010000841F4000C00F4001
:1019F000FFFCFF1F000300A000402A401200FFFF71
:101A0000FF37F70000FFF07C40000080FF000F83ED
:101A10006300020000422A4000432A40F05AF05A74
:101A20009F041830063201263806180A0400030005
:101A30006420002000802A4000244FF480200123ED
:101A40001146C2F8A040C2F8A400C2F8B0304B69F9
:101A50003B4ADF07FBD501234FF400040020114669
:101A60005361C2F8A040C2F8A400C2F8B0304B697C
:101A7000334ADE07FBD501234FF400044FF48030D6
:101A800011465361C2F8A040C2F8A400C2F8B030B9
:101A90004B692B4ADD07FBD501234FF400044FF4BB
:101AA000003011465361C2F8A040C2F8A400C2F849
:101AB000B0304B69224ADC07FBD501234FF4000408
:101AC000204811465361C2F8A040C2F8A400C2F8F1
:101AD000B0304B691A4AD807FBD5D2F8003145F629
:101AE0000D5121209BB250618B4210D0164B082221
:101AF0004FF400041A7015490020154A0123009084
:101B0000521A1448224400F08FF903B0F0BD4FF48C
:101B100000044FF4802101231046C2F8A040C2F80F
:101B2000A410C2F8B03043690549DB07FBD501209A
:101B3000054B10224FF0807448611A70DBE700BF3C
:101B400000402A4004000300002000200000007034
:101B50000000007064200020F0B4174A40274FF4C2
:101B600080314FF480564FF400554FF4404443F217
:101B70004200136913F0020F06D094615161906125
:101B8000136913F0020FF8D113F4005F01D155610E
:101B9000EFE713F4805F01D15661EAE7002BE8DA42
:101BA00013F4803F01D09161E3E75B0601D45761F4
:101BB000DFE7F0BC704700BF00800D40394A0320CA
:101BC0003949F3EE095A13689FED386A23F001038F
:101BD000DFED376AF0B4136000241061D1F8E03013
:101BE000344FD8B2C3F30B211B0D334E07EE100A4E
:101BF00005EE101A07EE903A304BB8EEC55A304D4C
:101C0000B8EEC77A3060F8EEE77A29602D4937EEF2
:101C1000466A2D4E77EEC57A2C4877EE666A2C4DD3
:101C200037EE657A26EE276AC7ED007A66EEA76A78
:101C3000176867EE277A83ED007AC6EE075A86EEBC
:101C4000876AC7EE876A35EE857AFCEEC77A36EE8C
:101C5000057A17EE903ABCEEC77A47EA035376EE60
:101C6000857A136017EE103AD2F81071FCEEE77A1D
:101C700001EA0341394317EE903AC2F81011C3F359
:101C80000B03D2F810110B43C2F81031136843F064
:101C9000020313603470C0F840510E4B0122F0BCB7
:101CA0001A60704780810D4000441F400000AA4226
:101CB0000000B442BC1F0020B41F0020B81F002049
:101CC000B01F00200000FF0F40E400E000180020DB
:101CD0006D71000008E100E0304B40F6617270B5B4
:101CE000C3F8202140F2044500F0B2F82C492D48F9
:101CF000D1F880202C4C42F003022C4BC1F88020FC
:101D0000C0F86051226813401BB9D0F8A8319A0777
:101D10001AD0244B4FF00041234A51631A46D3F89E
:101D2000401141F00201C3F84011D2F840319B0745
:101D3000FBD44FF400301E491B4B4FF000420860AB
:101D400019209A6300F08CF81A4D0022164B4FF0C0
:101D50008041144C0A26996328461A601146C4F83B
:101D6000A8614FF4207200F06FF84FF4810640F242
:101D700043114FF48000104B104A2E602864C4F8C1
:101D80005851C4F84811C3F804220D4A4FF40031E9
:101D900001231160C4F8403170BD00BF00800D40C8
:101DA00000C00F4000002E4000900D40001C1E009F
:101DB0008CE200E0000000200018002039730000D1
:101DC0000CE100E008B50E4B1B6E9B0700D4FBBE78
:101DD00072B60C4B00200C4AC3F8400103F160437B
:101DE0000A49A3F55F2311649D46BFF34F8F084A4C
:101DF00003F5E0430749126818461960936898474D
:101E000000441F4000002E4000C00A400300200094
:101E10001C002000000012EBF8B500BFF8BC08BCA5
:101E20009E467047000000005FF800F0F187000058
:101E30005FF800F0B58400005FF800F0456E000028
:101E40005FF800F04D6800005FF800F0419400007A
:101E50005FF800F0D97A00005FF800F0F19300001D
:101E60005FF800F0116B000001010000F535000083
:081E7000614000007940000010
:101E7800160355005300420020005300650072000D
:101E8800690061006C0000001803540065006500DB
:101E98006E00730079006400750069006E006F00C1
:101EA8000403090409024B00020100C032080B00B8
:101EB80002020201000904000001020201000524D7
:101EC800001001052401010104240206052406006E
:101ED800010705820310001009040100020A00002E
:101EE80000070503024000000705840240000000C7
:101EF80009024B00020100C032080B000202020175
:101F08000009040000010202010005240010010577
:101F180024010101042402060524060001070582A4
:101F28000310000509040100020A00000007050368
:101F38000200020007058402000200000A060002EF
:081F4800EF020140010001005D
:101F50000000000000000000000000000000000081
:101F60000000000000000000000000000000000071
:101F70004FF08442F8B5936955691D400DD0244F48
:101F80000126956195FAA5F4B4FA84F457F8243043
:101F900006FA04F49847A543F4D11E4A936955699B
:101FA0001D400DD01C4F0126956195FAA5F4B4FA99
:101FB00084F457F8243006FA04F49847A543F4D182
:101FC000164A936955691D400DD0154F012695613C
:101FD00095FAA5F4B4FA84F457F8243006FA04F418
:101FE0009847A543F4D10F4A936955691D400ED017
:101FF0000D4F0126956195FAA5F4B4FA84F457F8CB
:10200000243006FA04F49847A543F4D1F8BDF8BD8E
:102010004015002000400042C01500200080004212
:102020004016002000C00042C016002010B5054C2C
:10203000237833B9044B13B10448AFF30080012374
:10204000237010BD481C002000000000B496000062
:10205000084B10B51BB108490848AFF30080084889
:10206000036803B910BD074B002BFBD0BDE810403F
:10207000184700BF000000004C1C0020B496000070
:10208000C01A00200000000000207047704700BF09
:10209000002070470020704743685B6953F82100B7
:1020A000704700BF4368B3F9100070478446C068AA
:1020B00003EB830300682DE9F04300EBC20430F822
:1020C0003280BCF81A50B4F90220A48818FB05F934
:1020D000BCF91C600A44DCF8240044449DF820E06C
:1020E00012FB06F214FB05F40768BEF1010F0FFAAC
:1020F00089F1DCF828C012B23F6C24B29DF81C5064
:102100009DF8248009D02B443CF813300893BC463A
:1021100023460796BDE8F043604745442B440CEB4B
:10212000430CBCF80430F1E72DE9F0438646C06863
:10213000BDF920500068BEF81A7000EBC10C30F9F0
:102140003110BEF81C40BCF902C00A44DEF824007D
:1021500015FB04F56344BDF91C609DF82CC012FB0F
:1021600007F113FB04F4DEF8288016FB07F6BCF138
:10217000010F076822B22DB29DF8244033B2FF6CE4
:1021800009B29DF828E09DF830900AD004EB840451
:10219000744438F814400894BC460795BDE8F043F1
:1021A000604704EB84060EEB0904344408EB440852
:1021B000B8F80440EFE700BF2DE9F0438646C06859
:1021C000BDF920500068BEF81A7000EBC10C30F960
:1021D0003110BEF81C40BCF902C00A44DEF82400ED
:1021E00015FB04F56344BDF91C609DF82CC012FB7F
:1021F00007F113FB04F4DEF8288016FB07F6BCF1A8
:10220000010F076822B22DB29DF8244033B23F6C13
:1022100009B29DF828E09DF830900AD004EB8404C0
:10222000744438F814400894BC460795BDE8F04360
:10223000604704EB84060EEB0904344408EB4408C1
:10224000B8F80440EFE700BFC368826A1B68B2F8C1
:1022500004C0F0B5456A044683B00E4603EBC101E5
:102260002F6833F836E028468B884A88CDF804C0BA
:10227000A58BB1F806C012FB05F2618B1CFB05F5BE
:1022800013FB01F312B21EFB01F12DB21BB200953C
:1022900009B23D6CA847E36800225B6843F826203A
:1022A00003B0F0BDF0B5C568BDF918402E68836A6B
:1022B00036F834E003EB4205B38806EBC402466A05
:1022C000448BB2F90220B0F91C7013FB04F3B5F88B
:1022D0002CC011443568304611FB07F2CDF818C008
:1022E0001EFB04F10597EC6C12B21BB2A44609B2B6
:1022F000BDE8F040604700BF006903681B681847ED
:10230000006903681B691847006903689B691847DF
:10231000006903685B69184700690368DB68184750
:1023200081610120704700BF00207047036910B52C
:10233000044618680368DB6898472369586803688F
:10234000BDE81040DB68184738B5036904461868D3
:1023500003681B69984723690546586803681B6929
:102360009847284438BD00BF70B5064600240F4D7D
:102370003369185903681B6998474FF0FF3348B910
:102380002A680434094993420BD1082CF0D14FF04C
:10239000FF3070BD3369185903685B69984703467D
:1023A000EEE74FF0FF3218460A6070BD1C140020A3
:1023B000036910B50446186803681B69984740B95B
:1023C0002369586803681B69984750B94FF0FF307C
:1023D00010BD00232269D0580368BDE810409B69F6
:1023E00018470423F6E700BF436800225B69427286
:1023F0001B68C360704700BF437A33B94368C06845
:102400005B691B681B1A18BF01231846704700BF81
:102410004368586A003018BF012070474368596903
:10242000DA69086810B49C69844207DC904203466C
:102430005DF8044BA8BF13460B60704723465DF858
:10244000044B0B60704700BF1C4B827A1B681B7AE1
:10245000002B0CBF01234FF0FF3330B401FB03F11D
:1024600043688AB1012200295C6A4272586911DD11
:10247000DA690168551AAC4218DD997BC90748BF73
:102480009A6930BC02607047012200291C6A4272BE
:102490005869EDDC99690268551AAC420ADD9A7BED
:1024A000D20748BFD96930BC016070470C44046052
:1024B00030BC7047141B046030BC704724140020EB
:1024C000014805F06FBF00BFE41D002000B583B0D8
:1024D000012202AB03F8011D194605F095FA01200F
:1024E00003B05DF804FB00BF08B50B46C168184691
:1024F00006F07CF800B208BD1368F0B59B6905468C
:1025000010460E4614462DED028B83B09847C1B29B
:102510002D2938D0304B186808F088FF002849D0A2
:10252000637BFBB16B68B7EE008A5F6920460124CC
:1025300006F0EAF828EE000A02204FF6FF722B6838
:102540003146BDEEC00A8DF80400ADF806202846DD
:10255000019A87ED000ADB69AC72984703B0BDECC5
:10256000028BF0BD07204FF6FF722B688DF8040038
:102570003146ADF806202846019ADB69984703B03A
:10258000BDEC028BF0BD236820465B699847124A78
:102590002368204617689B6998470146384608F02B
:1025A00045FFB0B1637B002BDCD06B68BFEE008AC7
:1025B0005F69BBE7236820462A685B69D46998474E
:1025C000C1B2304604F0FEFA314602462846A04722
:1025D000C4E70420C7E700BF20140020F0B5456819
:1025E000BDF914E06F69BDF918603F68BDF91C5072
:1025F000CDF814E0C76006960795BDE8F04003F0FB
:10260000BFBA00BF70B505460C4603F0EFFC2B695E
:10261000214618680368DB6998472B69214658688A
:102620000368BDE87040DB69184700BF012B70B438
:10263000456A9DF80C60846A08D001EB8101284648
:10264000114434F8111070BC05F098B901EB810306
:1026500091192846194404EB4104A18870BC05F087
:102660008DB900BFF0B5C568848B2D68068C05EB6D
:10267000C30E35F93330478BBEF902501944406A16
:1026800017FB01F12A4414FB026289B292B2BDE841
:10269000F04005F039B900BF10B50446006905F0F7
:1026A0002FFEE26994F820301044E0612BB92069D4
:1026B00005F04EFE034684F82000052B18D0062BAB
:1026C0001BD00021E369A06994F914201B1A84F837
:1026D000201051428B4206DD934213DB0B4B1B68EB
:1026E0005B68D87910BD094B1B685B68587A10BDD0
:1026F000064B1B685B68587910BD044B1B685B6810
:10270000D87810BD4FF0FF3010BD00BF241400205A
:1027100030B5044683B0406A0D4605F0D9F8606ACA
:10272000084A03681B68934208D102A9012201F8F4
:10273000015D05F069F9012003B030BD29469847D5
:1027400003B030BD7D05000010B5002304460069CC
:1027500084F8203005F0D4FDE36994F82020034488
:10276000E3612AB9206905F0F3FDE36984F82000EC
:10277000A36110BD30B5044683B00021C06804F0E9
:1027800011FA606AA26A036891885B6C98472268B4
:10279000194B556A9D421CD1E368A58B1B68228C9E
:1027A00058881988638B10FB0522606A11FB03F1BE
:1027B00092B289B205F0A8F82268104B956A9D4242
:1027C00011D1A36A606AD98903B0BDE8304005F031
:1027D000D5B8002320461A461946A8472268074B59
:1027E000956A9D42EDD001230022204619460092B1
:1027F000A84703B030BD00BF15070000DD0600008C
:102800000368194A9B69934210B527D104460069B1
:1028100005F076FDE26994F820301044E0619BB148
:10282000052B19D0062B17D00021E369A06994F974
:1028300014201B1A84F8201051428B420CDD934265
:10284000B4BF0020012010BD206905F081FD0346C2
:1028500084F82000052BE5D1012010BD98470130F8
:1028600018BF012010BD00BF4907000003682F4AB0
:102870009B69934210B504464AD1006905F040FDBA
:10288000E26994F820301044E061F3B1052B24D0C4
:10289000062B42D00021E369A06994F914201B1A89
:1028A00084F8201051428B4227DD93423ADB204BC3
:1028B0001B685B68D879002284F82020DA7990427E
:1028C00015D05B7A98421DD010BD206905F040FDFF
:1028D000034684F82000052BDAD1154B00221B6833
:1028E0005B68587984F82020DA799042E9D1A269AE
:1028F00094F914301344A36110BD0D4B1B685B6841
:10290000587AD8E7A36994F914209B1AA36110BDE3
:102910009847074B1B685B68CDE7054B1B685B68F6
:10292000D878C8E74FF0FF30CEE700BF4907000076
:1029300024140020214BD3F8CC2013685068196868
:10294000936810B404681940D06804421BD0137C0B
:1029500003F0030309B143F0040343F008039910A3
:10296000013B11740D2B0BD8DFE803F021071B0787
:102970000A152121150A071B07215369013B5361E1
:102980005DF8044B7047137C03F003030029E6D085
:1029900043F00403E3E753695DF8044B023B5361E2
:1029A000704753695DF8044B0233536170475369B4
:1029B0005DF8044B01335361704700BFA41C002035
:1029C000214BD3F8D020136850681968936810B46D
:1029D00004681940D06804421BD0137C03F0030341
:1029E00009B143F0040343F008039910013B11744B
:1029F0000D2B0BD8DFE803F021071B070A15212157
:102A0000150A071B07215369013B53615DF8044B0D
:102A10007047137C03F003030029E6D043F004035E
:102A2000E3E753695DF8044B023B53617047536918
:102A30005DF8044B02335361704753695DF8044BF2
:102A400001335361704700BFA41C0020214BD3F811
:102A5000D420136850681968936810B4046819404A
:102A6000D06804421BD0137C03F0030309B143F088
:102A7000040343F008039910013B11740D2B0BD88C
:102A8000DFE803F021071B070A152121150A071BA0
:102A900007215369013B53615DF8044B7047137C78
:102AA00003F003030029E6D043F00403E3E753698E
:102AB0005DF8044B023B5361704753695DF8044B6A
:102AC00002335361704753695DF8044B013353611E
:102AD000704700BFA41C0020214BD3F8D8201368F6
:102AE00050681968936810B404681940D0680442AB
:102AF0001BD0137C03F0030309B143F0040343F03C
:102B000008039910013B11740D2B0BD8DFE803F07B
:102B100021071B070A152121150A071B07215369E5
:102B2000013B53615DF8044B7047137C03F00303D2
:102B30000029E6D043F00403E3E753695DF8044B52
:102B4000023B5361704753695DF8044B0233536194
:102B5000704753695DF8044B01335361704700BF00
:102B6000A41C0020204B1A681368506819689368E9
:102B700010B404681940D06804421BD0137C03F0E1
:102B8000030309B143F0040343F008039910013B28
:102B900011740D2B0BD8DFE803F021071B070A1572
:102BA0002121150A071B07215369013B53615DF879
:102BB000044B7047137C03F003030029E6D043F075
:102BC0000403E3E753695DF8044B023B536170472C
:102BD00053695DF8044B02335361704753695DF8E4
:102BE000044B013353617047A41C0020204B5A68EA
:102BF000136850681968936810B404681940D06865
:102C000004421BD0137C03F0030309B143F0040317
:102C100043F008039910013B11740D2B0BD8DFE82A
:102C200003F021071B070A152121150A071B07219D
:102C30005369013B53615DF8044B7047137C03F00B
:102C400003030029E6D043F00403E3E753695DF88A
:102C5000044B023B5361704753695DF8044B0233E8
:102C60005361704753695DF8044B013353617047FA
:102C7000A41C0020204B9A68136850681968936858
:102C800010B404681940D06804421BD0137C03F0D0
:102C9000030309B143F0040343F008039910013B17
:102CA00011740D2B0BD8DFE803F021071B070A1561
:102CB0002121150A071B07215369013B53615DF868
:102CC000044B7047137C03F003030029E6D043F064
:102CD0000403E3E753695DF8044B023B536170471B
:102CE00053695DF8044B02335361704753695DF8D3
:102CF000044B013353617047A41C0020214BD3F8CF
:102D00008C20136850681968936810B404681940DF
:102D1000D06804421BD0137C03F0030309B143F0D5
:102D2000040343F008039910013B11740D2B0BD8D9
:102D3000DFE803F021071B070A152121150A071BED
:102D400007215369013B53615DF8044B7047137CC5
:102D500003F003030029E6D043F00403E3E75369DB
:102D60005DF8044B023B5361704753695DF8044BB7
:102D700002335361704753695DF8044B013353616B
:102D8000704700BFA41C0020214BD3F8902013688B
:102D900050681968936810B404681940D0680442F8
:102DA0001BD0137C03F0030309B143F0040343F089
:102DB00008039910013B11740D2B0BD8DFE803F0C9
:102DC00021071B070A152121150A071B0721536933
:102DD000013B53615DF8044B7047137C03F0030320
:102DE0000029E6D043F00403E3E753695DF8044BA0
:102DF000023B5361704753695DF8044B02335361E2
:102E0000704753695DF8044B01335361704700BF4D
:102E1000A41C0020214BD3F8942013685068196833
:102E2000936810B404681940D06804421BD0137C26
:102E300003F0030309B143F0040343F008039910BE
:102E4000013B11740D2B0BD8DFE803F021071B07A2
:102E50000A152121150A071B07215369013B5361FC
:102E60005DF8044B7047137C03F003030029E6D0A0
:102E700043F00403E3E753695DF8044B023B5361FD
:102E8000704753695DF8044B0233536170475369CF
:102E90005DF8044B01335361704700BFA41C002050
:102EA000214BD3F89820136850681968936810B4C0
:102EB00004681940D06804421BD0137C03F003035C
:102EC00009B143F0040343F008039910013B117466
:102ED0000D2B0BD8DFE803F021071B070A15212172
:102EE000150A071B07215369013B53615DF8044B29
:102EF0007047137C03F003030029E6D043F004037A
:102F0000E3E753695DF8044B023B53617047536933
:102F10005DF8044B02335361704753695DF8044B0D
:102F200001335361704700BFA41C0020214BD3F82C
:102F30009C20136850681968936810B4046819409D
:102F4000D06804421BD0137C03F0030309B143F0A3
:102F5000040343F008039910013B11740D2B0BD8A7
:102F6000DFE803F021071B070A152121150A071BBB
:102F700007215369013B53615DF8044B7047137C93
:102F800003F003030029E6D043F00403E3E75369A9
:102F90005DF8044B023B5361704753695DF8044B85
:102FA00002335361704753695DF8044B0133536139
:102FB000704700BFA41C0020214BD3F8A020136849
:102FC00050681968936810B404681940D0680442C6
:102FD0001BD0137C03F0030309B143F0040343F057
:102FE00008039910013B11740D2B0BD8DFE803F097
:102FF00021071B070A152121150A071B0721536901
:10300000013B53615DF8044B7047137C03F00303ED
:103010000029E6D043F00403E3E753695DF8044B6D
:10302000023B5361704753695DF8044B02335361AF
:10303000704753695DF8044B01335361704700BF1B
:10304000A41C0020214BD3F8A420136850681968F1
:10305000936810B404681940D06804421BD0137CF4
:1030600003F0030309B143F0040343F0080399108C
:10307000013B11740D2B0BD8DFE803F021071B0770
:103080000A152121150A071B07215369013B5361CA
:103090005DF8044B7047137C03F003030029E6D06E
:1030A00043F00403E3E753695DF8044B023B5361CB
:1030B000704753695DF8044B02335361704753699D
:1030C0005DF8044B01335361704700BFA41C00201E
:1030D000214BD3F8A820136850681968936810B47E
:1030E00004681940D06804421BD0137C03F003032A
:1030F00009B143F0040343F008039910013B117434
:103100000D2B0BD8DFE803F021071B070A1521213F
:10311000150A071B07215369013B53615DF8044BF6
:103120007047137C03F003030029E6D043F0040347
:10313000E3E753695DF8044B023B53617047536901
:103140005DF8044B02335361704753695DF8044BDB
:1031500001335361704700BFA41C0020214BD3F8FA
:10316000AC20136850681968936810B4046819405B
:10317000D06804421BD0137C03F0030309B143F071
:10318000040343F008039910013B11740D2B0BD875
:10319000DFE803F021071B070A152121150A071B89
:1031A00007215369013B53615DF8044B7047137C61
:1031B00003F003030029E6D043F00403E3E7536977
:1031C0005DF8044B023B5361704753695DF8044B53
:1031D00002335361704753695DF8044B0133536107
:1031E000704700BFA41C0020214BD3F8B020136807
:1031F00050681968936810B404681940D068044294
:103200001BD0137C03F0030309B143F0040343F024
:1032100008039910013B11740D2B0BD8DFE803F064
:1032200021071B070A152121150A071B07215369CE
:10323000013B53615DF8044B7047137C03F00303BB
:103240000029E6D043F00403E3E753695DF8044B3B
:10325000023B5361704753695DF8044B023353617D
:10326000704753695DF8044B01335361704700BFE9
:10327000A41C0020214BD3F8B420136850681968AF
:10328000936810B404681940D06804421BD0137CC2
:1032900003F0030309B143F0040343F0080399105A
:1032A000013B11740D2B0BD8DFE803F021071B073E
:1032B0000A152121150A071B07215369013B536198
:1032C0005DF8044B7047137C03F003030029E6D03C
:1032D00043F00403E3E753695DF8044B023B536199
:1032E000704753695DF8044B02335361704753696B
:1032F0005DF8044B01335361704700BFA41C0020EC
:10330000214BD3F8B820136850681968936810B43B
:1033100004681940D06804421BD0137C03F00303F7
:1033200009B143F0040343F008039910013B117401
:103330000D2B0BD8DFE803F021071B070A1521210D
:10334000150A071B07215369013B53615DF8044BC4
:103350007047137C03F003030029E6D043F0040315
:10336000E3E753695DF8044B023B536170475369CF
:103370005DF8044B02335361704753695DF8044BA9
:1033800001335361704700BFA41C0020214BD3F8C8
:10339000BC20136850681968936810B40468194019
:1033A000D06804421BD0137C03F0030309B143F03F
:1033B000040343F008039910013B11740D2B0BD843
:1033C000DFE803F021071B070A152121150A071B57
:1033D00007215369013B53615DF8044B7047137C2F
:1033E00003F003030029E6D043F00403E3E7536945
:1033F0005DF8044B023B5361704753695DF8044B21
:1034000002335361704753695DF8044B01335361D4
:10341000704700BFA41C0020214BD3F8C0201368C4
:1034200050681968936810B404681940D068044261
:103430001BD0137C03F0030309B143F0040343F0F2
:1034400008039910013B11740D2B0BD8DFE803F032
:1034500021071B070A152121150A071B072153699C
:10346000013B53615DF8044B7047137C03F0030389
:103470000029E6D043F00403E3E753695DF8044B09
:10348000023B5361704753695DF8044B023353614B
:10349000704753695DF8044B01335361704700BFB7
:1034A000A41C0020214BD3F8C4201368506819686D
:1034B000936810B404681940D06804421BD0137C90
:1034C00003F0030309B143F0040343F00803991028
:1034D000013B11740D2B0BD8DFE803F021071B070C
:1034E0000A152121150A071B07215369013B536166
:1034F0005DF8044B7047137C03F003030029E6D00A
:1035000043F00403E3E753695DF8044B023B536166
:10351000704753695DF8044B023353617047536938
:103520005DF8044B01335361704700BFA41C0020B9
:10353000214BD3F8C820136850681968936810B4F9
:1035400004681940D06804421BD0137C03F00303C5
:1035500009B143F0040343F008039910013B1174CF
:103560000D2B0BD8DFE803F021071B070A152121DB
:10357000150A071B07215369013B53615DF8044B92
:103580007047137C03F003030029E6D043F00403E3
:10359000E3E753695DF8044B023B5361704753699D
:1035A0005DF8044B02335361704753695DF8044B77
:1035B00001335361704700BFA41C0020204BDA6820
:1035C000136850681968936810B404681940D0688B
:1035D00004421BD0137C03F0030309B143F004033E
:1035E00043F008039910013B11740D2B0BD8DFE851
:1035F00003F021071B070A152121150A071B0721C4
:103600005369013B53615DF8044B7047137C03F031
:1036100003030029E6D043F00403E3E753695DF8B0
:10362000044B023B5361704753695DF8044B02330E
:103630005361704753695DF8044B01335361704720
:10364000A41C0020204B1A691368506819689368FD
:1036500010B404681940D06804421BD0137C03F0F6
:10366000030309B143F0040343F008039910013B3D
:1036700011740D2B0BD8DFE803F021071B070A1587
:103680002121150A071B07215369013B53615DF88E
:10369000044B7047137C03F003030029E6D043F08A
:1036A0000403E3E753695DF8044B023B5361704741
:1036B00053695DF8044B02335361704753695DF8F9
:1036C000044B013353617047A41C0020204B5A69FE
:1036D000136850681968936810B404681940D0687A
:1036E00004421BD0137C03F0030309B143F004032D
:1036F00043F008039910013B11740D2B0BD8DFE840
:1037000003F021071B070A152121150A071B0721B2
:103710005369013B53615DF8044B7047137C03F020
:1037200003030029E6D043F00403E3E753695DF89F
:10373000044B023B5361704753695DF8044B0233FD
:103740005361704753695DF8044B0133536170470F
:10375000A41C0020204B9A6913685068196893686C
:1037600010B404681940D06804421BD0137C03F0E5
:10377000030309B143F0040343F008039910013B2C
:1037800011740D2B0BD8DFE803F021071B070A1576
:103790002121150A071B07215369013B53615DF87D
:1037A000044B7047137C03F003030029E6D043F079
:1037B0000403E3E753695DF8044B023B5361704730
:1037C00053695DF8044B02335361704753695DF8E8
:1037D000044B013353617047A41C0020204BDA696D
:1037E000136850681968936810B404681940D06869
:1037F00004421BD0137C03F0030309B143F004031C
:1038000043F008039910013B11740D2B0BD8DFE82E
:1038100003F021071B070A152121150A071B0721A1
:103820005369013B53615DF8044B7047137C03F00F
:1038300003030029E6D043F00403E3E753695DF88E
:10384000044B023B5361704753695DF8044B0233EC
:103850005361704753695DF8044B013353617047FE
:10386000A41C0020204B1A6A1368506819689368DA
:1038700010B404681940D06804421BD0137C03F0D4
:10388000030309B143F0040343F008039910013B1B
:1038900011740D2B0BD8DFE803F021071B070A1565
:1038A0002121150A071B07215369013B53615DF86C
:1038B000044B7047137C03F003030029E6D043F068
:1038C0000403E3E753695DF8044B023B536170471F
:1038D00053695DF8044B02335361704753695DF8D7
:1038E000044B013353617047A41C0020204B5A6ADB
:1038F000136850681968936810B404681940D06858
:1039000004421BD0137C03F0030309B143F004030A
:1039100043F008039910013B11740D2B0BD8DFE81D
:1039200003F021071B070A152121150A071B072190
:103930005369013B53615DF8044B7047137C03F0FE
:1039400003030029E6D043F00403E3E753695DF87D
:10395000044B023B5361704753695DF8044B0233DB
:103960005361704753695DF8044B013353617047ED
:10397000A41C0020204B9A6A136850681968936849
:1039800010B404681940D06804421BD0137C03F0C3
:10399000030309B143F0040343F008039910013B0A
:1039A00011740D2B0BD8DFE803F021071B070A1554
:1039B0002121150A071B07215369013B53615DF85B
:1039C000044B7047137C03F003030029E6D043F057
:1039D0000403E3E753695DF8044B023B536170470E
:1039E00053695DF8044B02335361704753695DF8C6
:1039F000044B013353617047A41C0020204BDA6A4A
:103A0000136850681968936810B404681940D06846
:103A100004421BD0137C03F0030309B143F00403F9
:103A200043F008039910013B11740D2B0BD8DFE80C
:103A300003F021071B070A152121150A071B07217F
:103A40005369013B53615DF8044B7047137C03F0ED
:103A500003030029E6D043F00403E3E753695DF86C
:103A6000044B023B5361704753695DF8044B0233CA
:103A70005361704753695DF8044B013353617047DC
:103A8000A41C0020204B1A6B1368506819689368B7
:103A900010B404681940D06804421BD0137C03F0B2
:103AA000030309B143F0040343F008039910013BF9
:103AB00011740D2B0BD8DFE803F021071B070A1543
:103AC0002121150A071B07215369013B53615DF84A
:103AD000044B7047137C03F003030029E6D043F046
:103AE0000403E3E753695DF8044B023B53617047FD
:103AF00053695DF8044B02335361704753695DF8B5
:103B0000044B013353617047A41C0020204B5A6BB7
:103B1000136850681968936810B404681940D06835
:103B200004421BD0137C03F0030309B143F00403E8
:103B300043F008039910013B11740D2B0BD8DFE8FB
:103B400003F021071B070A152121150A071B07216E
:103B50005369013B53615DF8044B7047137C03F0DC
:103B600003030029E6D043F00403E3E753695DF85B
:103B7000044B023B5361704753695DF8044B0233B9
:103B80005361704753695DF8044B013353617047CB
:103B9000A41C0020204B9A6B136850681968936826
:103BA00010B404681940D06804421BD0137C03F0A1
:103BB000030309B143F0040343F008039910013BE8
:103BC00011740D2B0BD8DFE803F021071B070A1532
:103BD0002121150A071B07215369013B53615DF839
:103BE000044B7047137C03F003030029E6D043F035
:103BF0000403E3E753695DF8044B023B53617047EC
:103C000053695DF8044B02335361704753695DF8A3
:103C1000044B013353617047A41C0020204BDA6B26
:103C2000136850681968936810B404681940D06824
:103C300004421BD0137C03F0030309B143F00403D7
:103C400043F008039910013B11740D2B0BD8DFE8EA
:103C500003F021071B070A152121150A071B07215D
:103C60005369013B53615DF8044B7047137C03F0CB
:103C700003030029E6D043F00403E3E753695DF84A
:103C8000044B023B5361704753695DF8044B0233A8
:103C90005361704753695DF8044B013353617047BA
:103CA000A41C0020204B1A6C136850681968936894
:103CB00010B404681940D06804421BD0137C03F090
:103CC000030309B143F0040343F008039910013BD7
:103CD00011740D2B0BD8DFE803F021071B070A1521
:103CE0002121150A071B07215369013B53615DF828
:103CF000044B7047137C03F003030029E6D043F024
:103D00000403E3E753695DF8044B023B53617047DA
:103D100053695DF8044B02335361704753695DF892
:103D2000044B013353617047A41C0020204B5A6C94
:103D3000136850681968936810B404681940D06813
:103D400004421BD0137C03F0030309B143F00403C6
:103D500043F008039910013B11740D2B0BD8DFE8D9
:103D600003F021071B070A152121150A071B07214C
:103D70005369013B53615DF8044B7047137C03F0BA
:103D800003030029E6D043F00403E3E753695DF839
:103D9000044B023B5361704753695DF8044B023397
:103DA0005361704753695DF8044B013353617047A9
:103DB000A41C0020204B9A6C136850681968936803
:103DC00010B404681940D06804421BD0137C03F07F
:103DD000030309B143F0040343F008039910013BC6
:103DE00011740D2B0BD8DFE803F021071B070A1510
:103DF0002121150A071B07215369013B53615DF817
:103E0000044B7047137C03F003030029E6D043F012
:103E10000403E3E753695DF8044B023B53617047C9
:103E200053695DF8044B02335361704753695DF881
:103E3000044B013353617047A41C0020204BDA6C03
:103E4000136850681968936810B404681940D06802
:103E500004421BD0137C03F0030309B143F00403B5
:103E600043F008039910013B11740D2B0BD8DFE8C8
:103E700003F021071B070A152121150A071B07213B
:103E80005369013B53615DF8044B7047137C03F0A9
:103E900003030029E6D043F00403E3E753695DF828
:103EA000044B023B5361704753695DF8044B023386
:103EB0005361704753695DF8044B01335361704798
:103EC000A41C0020204B1A6D136850681968936871
:103ED00010B404681940D06804421BD0137C03F06E
:103EE000030309B143F0040343F008039910013BB5
:103EF00011740D2B0BD8DFE803F021071B070A15FF
:103F00002121150A071B07215369013B53615DF805
:103F1000044B7047137C03F003030029E6D043F001
:103F20000403E3E753695DF8044B023B53617047B8
:103F300053695DF8044B02335361704753695DF870
:103F4000044B013353617047A41C0020204B5A6D71
:103F5000136850681968936810B404681940D068F1
:103F600004421BD0137C03F0030309B143F00403A4
:103F700043F008039910013B11740D2B0BD8DFE8B7
:103F800003F021071B070A152121150A071B07212A
:103F90005369013B53615DF8044B7047137C03F098
:103FA00003030029E6D043F00403E3E753695DF817
:103FB000044B023B5361704753695DF8044B023375
:103FC0005361704753695DF8044B01335361704787
:103FD000A41C0020204B9A6D1368506819689368E0
:103FE00010B404681940D06804421BD0137C03F05D
:103FF000030309B143F0040343F008039910013BA4
:1040000011740D2B0BD8DFE803F021071B070A15ED
:104010002121150A071B07215369013B53615DF8F4
:10402000044B7047137C03F003030029E6D043F0F0
:104030000403E3E753695DF8044B023B53617047A7
:1040400053695DF8044B02335361704753695DF85F
:10405000044B013353617047A41C0020204BDA6DE0
:10406000136850681968936810B404681940D068E0
:1040700004421BD0137C03F0030309B143F0040393
:1040800043F008039910013B11740D2B0BD8DFE8A6
:1040900003F021071B070A152121150A071B072119
:1040A0005369013B53615DF8044B7047137C03F087
:1040B00003030029E6D043F00403E3E753695DF806
:1040C000044B023B5361704753695DF8044B023364
:1040D0005361704753695DF8044B01335361704776
:1040E000A41C0020204B1A6E13685068196893684E
:1040F00010B404681940D06804421BD0137C03F04C
:10410000030309B143F0040343F008039910013B92
:1041100011740D2B0BD8DFE803F021071B070A15DC
:104120002121150A071B07215369013B53615DF8E3
:10413000044B7047137C03F003030029E6D043F0DF
:104140000403E3E753695DF8044B023B5361704796
:1041500053695DF8044B02335361704753695DF84E
:10416000044B013353617047A41C0020204B5A6E4E
:10417000136850681968936810B404681940D068CF
:1041800004421BD0137C03F0030309B143F0040382
:1041900043F008039910013B11740D2B0BD8DFE895
:1041A00003F021071B070A152121150A071B072108
:1041B0005369013B53615DF8044B7047137C03F076
:1041C00003030029E6D043F00403E3E753695DF8F5
:1041D000044B023B5361704753695DF8044B023353
:1041E0005361704753695DF8044B01335361704765
:1041F000A41C0020204B9A6E1368506819689368BD
:1042000010B404681940D06804421BD0137C03F03A
:10421000030309B143F0040343F008039910013B81
:1042200011740D2B0BD8DFE803F021071B070A15CB
:104230002121150A071B07215369013B53615DF8D2
:10424000044B7047137C03F003030029E6D043F0CE
:104250000403E3E753695DF8044B023B5361704785
:1042600053695DF8044B02335361704753695DF83D
:10427000044B013353617047A41C0020204BDA6EBD
:10428000136850681968936810B404681940D068BE
:1042900004421BD0137C03F0030309B143F0040371
:1042A00043F008039910013B11740D2B0BD8DFE884
:1042B00003F021071B070A152121150A071B0721F7
:1042C0005369013B53615DF8044B7047137C03F065
:1042D00003030029E6D043F00403E3E753695DF8E4
:1042E000044B023B5361704753695DF8044B023342
:1042F0005361704753695DF8044B01335361704754
:10430000A41C0020204B1A6F13685068196893682A
:1043100010B404681940D06804421BD0137C03F029
:10432000030309B143F0040343F008039910013B70
:1043300011740D2B0BD8DFE803F021071B070A15BA
:104340002121150A071B07215369013B53615DF8C1
:10435000044B7047137C03F003030029E6D043F0BD
:104360000403E3E753695DF8044B023B5361704774
:1043700053695DF8044B02335361704753695DF82C
:10438000044B013353617047A41C0020204B5A6F2B
:10439000136850681968936810B404681940D068AD
:1043A00004421BD0137C03F0030309B143F0040360
:1043B00043F008039910013B11740D2B0BD8DFE873
:1043C00003F021071B070A152121150A071B0721E6
:1043D0005369013B53615DF8044B7047137C03F054
:1043E00003030029E6D043F00403E3E753695DF8D3
:1043F000044B023B5361704753695DF8044B023331
:104400005361704753695DF8044B01335361704742
:10441000A41C0020204B9A6F136850681968936899
:1044200010B404681940D06804421BD0137C03F018
:10443000030309B143F0040343F008039910013B5F
:1044400011740D2B0BD8DFE803F021071B070A15A9
:104450002121150A071B07215369013B53615DF8B0
:10446000044B7047137C03F003030029E6D043F0AC
:104470000403E3E753695DF8044B023B5361704763
:1044800053695DF8044B02335361704753695DF81B
:10449000044B013353617047A41C0020204BDA6F9A
:1044A000136850681968936810B404681940D0689C
:1044B00004421BD0137C03F0030309B143F004034F
:1044C00043F008039910013B11740D2B0BD8DFE862
:1044D00003F021071B070A152121150A071B0721D5
:1044E0005369013B53615DF8044B7047137C03F043
:1044F00003030029E6D043F00403E3E753695DF8C2
:10450000044B023B5361704753695DF8044B02331F
:104510005361704753695DF8044B01335361704731
:10452000A41C0020214BD3F8802013685068196820
:10453000936810B404681940D06804421BD0137CFF
:1045400003F0030309B143F0040343F00803991097
:10455000013B11740D2B0BD8DFE803F021071B077B
:104560000A152121150A071B07215369013B5361D5
:104570005DF8044B7047137C03F003030029E6D079
:1045800043F00403E3E753695DF8044B023B5361D6
:10459000704753695DF8044B0233536170475369A8
:1045A0005DF8044B01335361704700BFA41C002029
:1045B000214BD3F88420136850681968936810B4AD
:1045C00004681940D06804421BD0137C03F0030335
:1045D00009B143F0040343F008039910013B11743F
:1045E0000D2B0BD8DFE803F021071B070A1521214B
:1045F000150A071B07215369013B53615DF8044B02
:104600007047137C03F003030029E6D043F0040352
:10461000E3E753695DF8044B023B5361704753690C
:104620005DF8044B02335361704753695DF8044BE6
:1046300001335361704700BFA41C0020214BD3F805
:104640008820136850681968936810B4046819408A
:10465000D06804421BD0137C03F0030309B143F07C
:10466000040343F008039910013B11740D2B0BD880
:10467000DFE803F021071B070A152121150A071B94
:1046800007215369013B53615DF8044B7047137C6C
:1046900003F003030029E6D043F00403E3E7536982
:1046A0005DF8044B023B5361704753695DF8044B5E
:1046B00002335361704753695DF8044B0133536112
:1046C000704700BFA41C00202DE9F0470E46154698
:1046D0000446022130464FF0000A04F067FA2846EB
:1046E0000221DFF8C49204F061FAA04A3301A04924
:1046F000280102EB030E52F8038017184FF4FA63F7
:10470000DEF80CE0C4F80080C4F808E0FF6852F856
:1047100000C00846C4F814A0E760DFF890A209685A
:10472000D9F80020C4F804C0AAFB0292920C03FB43
:1047300002F203685B1A9A42FBD8D8F80030DCF822
:1047400000201EEA030F14BF01230023174202D0EA
:1047500043F00203DBB22374362E00F28E85DFE8CD
:1047600016F07F0575056B05610557054D05430579
:1047700039052F0525051B0511050705FD04F30463
:10478000E904DF04D504CB04C104B704AD04A304D9
:1047900099048F0485047B0425041C0413040A0473
:1047A0000104F703ED03E303D903CF03C503BB0300
:1047B000B103A7039D03930389037F0375036B0371
:1047C000610357034D03430339032F0325033700C8
:1047D000684B042268493620C3F8D84004F028FA10
:1047E00001232376362D00F24585DFE815F0D5024A
:1047F000CB02C102B702AD02A30299028F02850269
:104800007B022C02220218020E020402FA01F001BD
:10481000E601DC01D201C801BE01B401AA01A00178
:1048200096018C01820178016E0164015A014F01E9
:10483000440139012E01230118010D010201F70085
:10484000EC00E100B400A9009E00930088007D0008
:10485000720067005C00510046003700454B04229F
:1048600045493620C3F8D84004F0E2F9237E0122FE
:10487000134420462376BDE8F0873E4B04223F498F
:104880003520C3F8D44004F0D3F9237E0122EFE7AA
:10489000384B04223A493420C3F8D04004F0C8F918
:1048A000237E0122E4E7334B042236493320C3F848
:1048B000CC4004F0BDF9237E0122D9E72D4B042220
:1048C00031493220C3F8C84004F0B2F9237E0122F6
:1048D000CEE7284B04222D493120C3F8C44004F010
:1048E000A7F9237E0122C3E7224B04222849302066
:1048F000C3F8C04004F09CF9237E0122B8E71D4BA9
:10490000042224492F20C3F8BC4004F091F9237EEF
:104910000122ADE7174B04221F492E20C3F8B840EF
:1049200004F086F9237E0122A2E7124B04221B49E0
:104930002D20C3F8B44004F07BF9237E012297E7D1
:104940000C4B042216492C20C3F8B04004F070F937
:10495000237E01228CE7074B042212492B20C3F847
:10496000AC4004F065F9237E012281E7E00A0020D3
:10497000041000E0A41C0020890B0000FD0A0000C8
:10498000710A0000E5090000E1150000551500005E
:10499000C91400003D140000B113000025130000ED
:1049A000991200000D120000B413002083DE1B4397
:1049B000AA4B0422AA492A20C3F8A84004F038F9D7
:1049C000237E012254E7A54B0422A6492920C3F8DF
:1049D000A44004F02DF9237E012249E79F4B0422D5
:1049E000A1492820C3F8A04004F022F9237E012227
:1049F0003EE79A4B04229D492720C3F89C4004F0CF
:104A000017F9237E012233E7944B0422984926208C
:104A1000C3F8984004F00CF9237E012228E78F4B5D
:104A2000042294492520C3F8944004F001F9237E20
:104A300001221DE7894B04228F492420C3F89040AE
:104A400004F0F6F8237E012212E7844B04228B49FE
:104A50002320C3F88C4004F0EBF8237E012207E703
:104A60007E4B042286492220C3F8884004F0E0F8F7
:104A7000237E0122FCE6794B042282492120C3F8DF
:104A8000844004F0D5F8237E0122F1E6734B042222
:104A90007D492020C3F8804004F0CAF8237E01221B
:104AA000E6E66E4B042279491F20DC6704F0C0F86B
:104AB000237E0122DCE6694B042275491E209C6797
:104AC00004F0B6F8237E0122D2E6644B0422714939
:104AD0001D205C6704F0ACF8237E0122C8E65F4B22
:104AE00004226D491C201C6704F0A2F8237E0122D9
:104AF000BEE65A4B042269491B20DC6604F098F894
:104B0000237E0122B4E6554B042265491A209C6697
:104B100004F08EF8237E0122AAE6504B042261495C
:104B200019205C6604F084F8237E0122A0E64B4B3A
:104B300004225D4918201C6604F07AF8237E0122C5
:104B400096E6464B042259491720DC6504F070F8BC
:104B5000237E01228CE6414B0422554916209C6598
:104B600004F066F8237E012282E63C4B0422514980
:104B700015205C6504F05CF8237E012278E6374B53
:104B800004224D4914201C6504F052F8237E0122B2
:104B90006EE6324B042249491320DC6404F048F8E5
:104BA000237E012264E62D4B0422454912209C6499
:104BB00004F03EF8237E01225AE6284B04224149A4
:104BC00011205C6404F034F8237E012250E6234B6C
:104BD00004223D4910201C6404F02AF8237E01229F
:104BE00046E61E4B042239490F20DC6304F020F80E
:104BF000237E01223CE6194B042235490E209C639A
:104C000004F016F8237E012232E6144B04223149C7
:104C10000D205C6304F00CF8237E012228E60F4B84
:104C200004222D490C201C6304F002F8237E01228B
:104C30001EE60A4B042229490B20DC6203F0F8FF30
:104C4000237E012214E6054B042225490A209C629A
:104C500003F0EEFF237E01220AE600BFA41C002021
:104C600081110000F510000069100000DD0F000048
:104C7000510F0000C50E0000390E0000AD0D000000
:104C8000ED26000061260000D52500004D2500001E
:104C9000C52400003D240000B52300002D230000A2
:104CA000A52200001D220000952100000D2100001A
:104CB00085200000FD1F0000751F0000ED1E000094
:104CC000651E0000DD1D0000551D0000CD1C00000C
:104CD000451C0000BD1B0000351B0000AD1A000084
:104CE000251A0000B64B0422B64909205C6203F085
:104CF0009FFF237E0122BBE5B14B0422B24908206D
:104D00001C6203F095FF237E0122B1E5AC4B042227
:104D1000AE490720DC6103F08BFF237E0122A7E56B
:104D2000A74B0422AA4906209C6103F081FF237E41
:104D300001229DE5A24B0422A64905205C6103F0F7
:104D400077FF237E012293E504229D4BA249104662
:104D50001C6103F06DFF237E012289E5984B04223C
:104D60009E490320DC6003F063FF237E01227FE580
:104D7000934B04229A4902209C6003F059FF237E42
:104D8000012275E58E4B0422964901205C6003F0F8
:104D90004FFF237E01226BE5894B042292490020BC
:104DA0001C6003F045FF237E012261E5844B042251
:104DB0008E493520C3F8D44003F03AFF012310E5B3
:104DC0007F4B04228A493420C3F8D04003F030FFDF
:104DD000012306E57A4B042286493320C3F8CC40F0
:104DE00003F026FF0123FCE4754B042282493220A4
:104DF000C3F8C84003F01CFF0123F2E4704B042207
:104E00007E493120C3F8C44003F012FF0123E8E4D7
:104E10006B4B04227A493020C3F8C04003F008FFEE
:104E20000123DEE4664B042276492F20C3F8BC4000
:104E300003F0FEFE0123D4E4614B042272492E20CC
:104E4000C3F8B84003F0F4FE0123CAE45C4B04222B
:104E50006E492D20C3F8B44003F0EAFE0123C0E4FC
:104E6000574B04226A492C20C3F8B04003F0E0FEFF
:104E70000123B6E4524B042266492B20C3F8AC4010
:104E800003F0D6FE0123ACE44D4B042262492A20F4
:104E9000C3F8A84003F0CCFE0123A2E4484B04224F
:104EA0005E492920C3F8A44003F0C2FE012398E420
:104EB000434B04225A492820C3F8A04003F0B8FE0F
:104EC00001238EE43E4B042256492720C3F89C4020
:104ED00003F0AEFE012384E4394B0422524926201C
:104EE000C3F8984003F0A4FE01237AE4344B042273
:104EF0004E492520C3F8944003F09AFE012370E444
:104F00002F4B04224A492420C3F8904003F090FE1E
:104F1000012366E42A4B042246492320C3F88C402F
:104F200003F086FE01235CE4254B04224249222043
:104F3000C3F8884003F07CFE012352E4204B042296
:104F40003E492120C3F8844003F072FE012348E467
:104F50001B4B04223A492020C3F8804003F068FE2E
:104F600001233EE4164B042236491F20DC6703F080
:104F70005FFE012335E4124B042233491E209C6757
:104F800003F056FE01232CE40D4B04222F491D2073
:104F90005C6703F04DFE012323E4094B04222C49F6
:104FA0001C201C6703F044FE01231AE4044B042276
:104FB00028491B20DC6603F03BFE012311E400BFFF
:104FC000A41C00209D190000151900008D18000078
:104FD000051800007D170000F51600006D16000092
:104FE000250D00009D0C0000150C0000FD0A0000BE
:104FF000710A0000E5090000E115000055150000E8
:10500000C91400003D140000B11300002513000076
:10501000991200000D12000081110000F51000002F
:1050200069100000DD0F0000510F0000C50E0000E8
:10503000390E0000AD0D0000ED26000061260000D5
:10504000D52500004D250000C52400003D240000AA
:10505000B52300002D230000894B042289491A2022
:105060009C6603F0E5FD0123FFF7BBBB844B0422E4
:10507000854919205C6603F0DBFD0123FFF7B1BB16
:105080007F4B0422814918201C6603F0D1FD0123C7
:10509000FFF7A7BB7A4B04227D491720DC6503F09C
:1050A000C7FD0123FFF79DBB754B042279491620EC
:1050B0009C6503F0BDFD0123FFF793BB704B0422F9
:1050C000754915205C6503F0B3FD0123FFF789BB2B
:1050D0006B4B0422714914201C6503F0A9FD0123C8
:1050E000FFF77FBB664B04226D491320DC6403F09D
:1050F0009FFD0123FFF775BB614B04226949122014
:105100009C6403F095FD0123FFF76BBB5C4B04220D
:10511000654911205C6403F08BFD0123FFF761BB3F
:10512000574B0422614910201C6403F081FD0123C8
:10513000FFF757BB524B04225D490F20DC6303F09D
:1051400077FD0123FFF74DBB4D4B042259490E203B
:105150009C6303F06DFD0123FFF743BB484B042222
:1051600055490D205C6303F063FD0123FFF739BB54
:10517000434B042251490C201C6303F059FD0123C9
:10518000FFF72FBB3E4B04224D490B20DC6203F09E
:105190004FFD0123FFF725BB394B042249490A2063
:1051A0009C6203F045FD0123FFF71BBB344B042237
:1051B000454909205C6203F03BFD0123FFF711BB69
:1051C0002F4B0422414908201C6203F031FD0123CA
:1051D000FFF707BB2A4B04223D490720DC6103F09F
:1051E00027FD0123FFF7FDBA254B0422394906208C
:1051F0009C6103F01DFD0123FFF7F3BA204B04224D
:10520000354905205C6103F013FD0123FFF7E9BA7E
:1052100004221B4B314910461C6103F009FD012398
:10522000FFF7DFBA164B04222D490320DC6003F0A0
:10523000FFFC0123FFF7D5BA114B042229490220B4
:105240009C6003F0F5FC0123FFF7CBBA0C4B042262
:10525000254901205C6003F0EBFC0123FFF7C1BA94
:10526000074B0422214900201C6003F0E1FC0123CC
:10527000FFF7B7BA0022FFF7FBBA0023FFF7B1BA76
:10528000A41C0020A52200001D2200009521000082
:105290000D21000085200000FD1F0000751F00008B
:1052A000ED1E0000651E0000DD1D0000551D000004
:1052B000CD1C0000451C0000BD1B0000351B00007C
:1052C000AD1A0000251A00009D19000015190000F4
:1052D0008D180000051800007D170000F51600006D
:1052E0006D160000250D00009D0C0000150C00003F
:1052F00038B58D4C6168204601F0D2FF204601F0A0
:1053000003FD8A4B1A7E012A1CD972B65A6962B60D
:10531000874B8848197E026001294BD972B65A69B9
:1053200062B6854B8548197E026001297AD972B62A
:105330005A6962B6824B61681A607B48BDE83840A2
:1053400001F0AEBF72B61A68586811680568D8686F
:105350009A68054201EA020100F0A4801A7C02F07A
:10536000030209B142F0040242F008029110013A2E
:1053700019740D2ACAD801A151F822F08F35000006
:10538000AF350000A7350000AF350000BD33000089
:105390009F3500008F3500008F3500009F350000DD
:1053A000BD330000AF350000A7350000AF35000069
:1053B0008F35000072B61A68586811680568D86899
:1053C0009A68054201EA020164D01A7C02F00302E5
:1053D00009B142F0040242F008029110013A197436
:1053E0000D2A9CD801A151F822F000BF973500008A
:1053F0007F350000773500007F350000CF33000097
:10540000873500009735000097350000873500008C
:10541000CF3300007F350000773500007F35000076
:105420009735000072B61A68586811680568D86820
:105430009A68054201EA02013DD01A7C02F003029B
:1054400009B142F0040242F008029110013A1974C5
:105450000D2A3FF66DAF01A151F822F0CF350000C3
:10546000C7350000BF350000C7350000E13300003C
:10547000B7350000CF350000CF350000B73500004C
:10548000E1330000C7350000BF350000C73500001C
:10549000CF3500001A7C02F0030200299DD042F0B3
:1054A00004029AE71A7C02F0030200293FF45EAF7F
:1054B00042F004025AE71A7C02F003020029C4D029
:1054C00042F00402C1E75A6902325A6128E75A6978
:1054D000013A5A6124E75A69023A5A6120E75A6947
:1054E00001325A6113E75A6901325A6118E75A6961
:1054F000023A5A610BE75A6902325A6107E75A6960
:10550000013A5A6103E75A69023A5A6111E75A6946
:1055100002325A610DE75A69013A5A6109E75A693C
:1055200001325A6105E700BFE81E00200C1E002072
:10553000281E0020941E0020441E0020981E0020DB
:10554000081E00202DE9F04FDFF88CA285B009225B
:105550000A215046002401F02FFF0125DFF87CE2EC
:10556000042783484FF47A7B824A3946824B4FF0B6
:105570000209DFF86CC24360062305724572C0F869
:1055800000E0C2F804C08472DFF858C27B4815728C
:1055900055729472C2F800E0C0F804C0784ADFF88F
:1055A00048C205724572C0F800E0C2F804C08472B7
:1055B000DFF838C27348744E157255729472C2F88F
:1055C00000E0C0F800C0714ADFF824C24260C6F8AB
:1055D00004C06F4ADFF81CC205724572C2F804C0ED
:1055E0006C48DFF814C235727572306015725572EE
:1055F0009472C2F800E0052200970194CCF800E014
:10560000DFF8F8E1DFF8F881CCF804E0DFF8F4E146
:105610008CF808508CF809508CF80A40C8F804E05F
:10562000DFF8E4C1DFF8E4E15B4FCEF800C0DFF85B
:10563000E0C18EF804408EF80C408EF80D50CEF884
:1056400008B0CEF810C0C8F80000384688F80850F6
:1056500088F8095002F0FEFD504B514A38461C7143
:10566000C3F808B01C735D731F611D759C61DC611C
:1056700083F820401A60039302F042FE039B214608
:10568000484FD861484A494BDFF888813A603B610E
:105690004046474A474BC7F808B03C713C737D739E
:1056A000A8F80850A8F80A4088E80C0001F07AFA37
:1056B000414B3146414E1A887760304602EB820EEC
:1056C0003F4B02EB4202DFF850C14FEA4E17DFF8C2
:1056D0004CE1C2EBC202C3F80C80C3F808C05F8380
:1056E0009A83C3F800E0DFF838C1DFF838E1354AC3
:1056F000354FDFF83481C2F804E0C3F824A01C71F0
:105700005C611C76DD831D84C3F8288083F81090CB
:10571000C6F814C015603260B481F48135747474B5
:10572000B461F46186F8204086F8215086F8224062
:10573000B584B4623C80B760F46286F8305001F002
:10574000B9FA2146304601F0A3FA082207211F4882
:10575000FEF7BAFF494603221D48FEF7B5FF0F22A8
:105760000E211C48FEF7B0FF05B0BDE8F08F00BF6A
:10577000801D0020901D002050140020A01D00203E
:10578000B01D0020281F0020DC1E00206C17002008
:10579000C01D0020DC090020E41D0020601E002048
:1057A000B0090020C81E0020840900202C1400200D
:1057B00034140020E01D0020BE170020E81E002049
:1057C0003C1F0020341F00201C1F00200C1E002046
:1057D000281E0020441E00209C1E0020A00A00203D
:1057E00078140020A0140020C8140020080A00200B
:1057F00040170020F0140020D01D002018150020B4
:10580000D81F002084170020280A0020C41F002071
:1058100008140020681F0020741F0020540A002074
:10582000494000007C170020DC0700202DE9F843E8
:105830000321654802F09AFC0121634840F2EE28FA
:1058400002F0AEF90121604802F06EF90A2201214E
:105850005D4802F08BF9FF215B4802F07BF95A4862
:1058600002F036F8594D0021574802F025FB03217C
:10587000554802F0AFF8564C2E68564FDFF890911D
:1058800004E0B3F5FA6F15D804F0C2FC04F0C0FCD4
:10589000237843B13B78DB0705D52B68D9F8002086
:1058A0009B1A0E2B06D82B6822789B1B002AE8D166
:1058B0004345E9D90821484804F024FC474802F050
:1058C00045FE1021464804F01DFC444802F03EFE0F
:1058D0001E21444804F016FC404802F037FE424BBB
:1058E0009FED426AD3ED007ADFED416AB8EE677A48
:1058F00067EE067A67EEA67AFCEEE77A17EE903A44
:10590000B3F5004F5AD35B080122B3F5004F4DD3D6
:1059100001325B08082AF8D148F2010647F6FF7306
:105920004FF40761334A082700204FF4005EB2F8B5
:105930008C4140F20445A4B244F48044A2F88C4166
:10594000A2F88E71B2F888412B4FA4B244F0400403
:10595000A2F88841A2F8C4E0A2F8C610A2F8C2607A
:10596000A2F8CA00A2F8CE30A2F8D200A2F8D6005F
:10597000A2F8DA00A2F8DE00B2F888111F4C89B252
:105980001F4E20480D432049A2F888513B802660D5
:10599000C0F86C124FF480531C494FF40060A2F819
:1059A000E430A2F8E6300860BDE8F88311019BB24C
:1059B00041F400615E4289B2B6B2B3E79BB24FF4E4
:1059C00000615E42B6B2ADE79C1E0020E81F0020D9
:1059D00008200020072000207C0E00200814002052
:1059E000880E00209C0E0020B013002000007A4496
:1059F000BD37063500003E40F41F0020181400207B
:105A00007105000000180020B965000010E100E0F9
:105A10007C20002000234372704700BF407A70470B
:105A2000034610B44468084611461A4623685DF8D8
:105A3000044B184700B5084685B01146019201F0A5
:105A400013FB05B05DF804FB70B5044613680D4602
:105A50001046226882B05B69D6699847C1B2284671
:105A600001F0B0F8294602462046B04702B070BDAA
:105A7000D3B230B5013B85B004460D460192062BEA
:105A80000AD8DFE803F02A0D440409092A00036854
:105A90004FF0FF319B6A9847637A73B905B030BD08
:105AA000837AD3B98B6893F82030B3B903681B6A43
:105AB000984790B10123A3726372AB682846B5F989
:105AC000002093F82230002B14BF4FF48071022184
:105AD00005B0BDE8304001F0B3B8002101222368D1
:105AE0002046A17262725B6A9847AB68B5F90020E4
:105AF000284693F82230002B14BF4FF48071022106
:105B000001F09EF8A86801F029F905B030BD0368DE
:105B100001219B6A9847637A002BBFD0CDE700BF75
:105B20002DE9F0411D46436804460E46BDF91C2090
:105B300028469968BDF9208000F042FA636807465C
:105B40001B7903F01503152B02D03846BDE8F08110
:105B5000B6F90E30B16803EB430301EB83014A68E9
:105B6000944208D0284643462246314600F040FB86
:105B70003846BDE8F0814246284600F04DFCE4E797
:105B80002DE9F04784B0814688469246BDF93450ED
:105B90001F46BDF93840BDF930600294009601956A
:105BA000FFF7BEFF8542044646DDD8F81C30C9EB3E
:105BB0000308B8FA88F84FEA5818BAF1000F09D06C
:105BC000B8F1000F06D099F80A30002B14BF3E211F
:105BD0003A2100E0202101343B683846A6B21B6818
:105BE000984734B2A54227DD3C68524699F8083000
:105BF0000221CDF800803846A46AA047D9F80030C9
:105C000039464846DB6A9847304486B234B2A542EA
:105C100012DD3C68524699F808300321CDF8008027
:105C20003846A46AA047D9F804302A46384619698C
:105C300000F0C6F9304404B2204604B0BDE8F08755
:105C40002DE9F04F85B004460F4690469DF83890F8
:105C50004FF00C0E6FF00B065C4D627A6ABB616808
:105C600091F804C01CF0140F2DD002921546DFF8F5
:105C700064A14E46DFF858B118E06368B3F910002C
:105C8000854229B21BDA23681B6A5B4578D16368B9
:105C90005B6953F82100D0F800E0002300964246EB
:105CA0003946DEF80C900135C84730B923681B68C7
:105CB0005345E2D020469847E2E701230293029839
:105CC00005B0BDE8F08F7868A0425CD1002B5AD0B7
:105CD000B8681CF0040FB0F90E305FD1D8F80C5042
:105CE00002928A7B2968B1F806B0910754D4017CEE
:105CF000002969D082F00402C2F3800203EB43055D
:105D00008068C2EB0B02D8F8081000EB85000FFA90
:105D100082FB42685268127902F01402002A18BF0E
:105D2000013BBBF1000F31F913300393C7DD0025B0
:105D3000DFF8A0A01AE06368B3F91000B042BEDD3E
:105D40002368234A1B6A934222D163685B6953F834
:105D5000260001680023CDF800904246CE683946FF
:105D60000135B0470028A8D15D45A8D02368039A23
:105D70001B68AE18534536B2DDD020469847DDE7A4
:105D80002046984787E70292029805B0BDE8F08F59
:105D9000314620469847DCE70122AFE713FB0E624D
:105DA0008768012317447C682268D268AA423FF4BE
:105DB00054AF9246394642462046D446CDF83890F4
:105DC00005B0BDE8F04F6047029A97E7893E0000B2
:105DD000490100005501000010B582B09DF8104047
:105DE0000094FFF72DFF02B010BD00BF2DE9F04F6A
:105DF0004FF0000E0E46416887B0044680F809E077
:105E0000087990469DF8405010F0140F03952AD061
:105E10007546DFF86891584F15E06368B3F91000D4
:105E2000854218DA23681B6ABB4218D163685B6934
:105E300053F82500D0F800E0002342463146DEF852
:105E400004A00135D04723681B684B45E5D02046A8
:105E500098478542E6DB002007B0BDE8F08F29B205
:105E600020469847E6E7D6F808E040071F46BEF907
:105E70000E5005EB45096AD470464FEA89098A7BC2
:105E8000930762D4037C002B71D1002F51D0D8F836
:105E90000C201268D288D31A1BB2002B059348DD60
:105EA00083680027D8F808204B44DFF8CCA0DFF83F
:105EB000CC905B685B681B7903F01403BB4218BF8E
:105EC000013D32F91530049328E06368B3F91000FE
:105ED000A8422EDD23681B6A534532D163685B6993
:105EE00053F82500016800234246D1F804B031463A
:105EF000D84723681B6A53451FD163685B6953F811
:105F0000250002683146039B00930023D568424672
:105F1000A84770B90137059B9F420AD02368049AAD
:105F20001B68D5194B452DB2CFD020469847A842C3
:105F3000D0DC012007B0BDE8F08F29462046984705
:105F4000DFE7294620469847CCE701239DE74FEA43
:105F50008909DEF80800A9F10C0101444868D0F86D
:105F600000E0DEF804A0D047B068616887E782F0FF
:105F70000403C3F3800388E74901000055010000D2
:105F800010B5002482B00094FFF730FF02B010BDBE
:105F900000207047012070470020704708B5036853
:105FA0003C2202495B689847002008BDBC0E0020D7
:105FB000014B024A1A607047A01C002041400000BB
:105FC00003681B69184700BF30B4064B3E252D24DB
:105FD0000548002101221D705C70586019725A72C8
:105FE00030BC7047941C002020080020704700BF80
:105FF00000207047704700BF2DE9F04188460978BE
:1060000008F1010479B106461746002506E0336819
:1060100001351B68984714F8011B21B13046002F49
:10602000F5D0AF42F3DCC8EB0400013800B2BDE8A4
:10603000F08100BF704700BF704700BF70B586B0E9
:106040009DF82840BDF9301014B9002006B070BD8D
:106050000468084D246CAC42F7D000260125013AB3
:10606000059612B203960296049501950095A047F5
:10607000EBE700BFE9400000F0B587B09DF8304085
:10608000BDF9341014B9002007B0F0BD046805460E
:106090000D4FE66BBE420AD1A46A0C4B9C42F2D073
:1060A00000220123284600921946A047EBE701246D
:1060B0000027013A0494019412B2009405970397C3
:1060C0000297B0472C68E7E7E9400000E540000090
:1060D0000268084B10B5946A82B09C4202D100203D
:1060E00002B010BD012300931A461946A0470020B4
:1060F00002B010BDE5400000002956D02DE9F04760
:106100009A460368002B4ADD8946174680460024DC
:106110000AE037D3022F04D1C847012842D0D8F86B
:1061200000300134A3423ADDD8F80420A600012F44
:10613000394652F8245002EB060E2846E9D12A7C53
:106140000134D1070CD4BAF1000F01D0920707D463
:10615000A34224DD5EF8045F01342A7CD107F2D526
:1061600028464B460121BDE8F04718472846012143
:10617000C847012816D0D8F800309C420FDAD8F86A
:1061800004309D590021284601340436C84748B9D7
:106190002B7CD807EAD5D8F800309C42EFDB0020F2
:1061A000BDE8F0870120BDE8F0870020704700BF00
:1061B0000168002908DD4368002003EB810153F8E2
:1061C000042B8B425061FAD1704700BF38B5036889
:1061D000002B0BDD054600246B6853F824000134C6
:1061E0000368DB6998472B68A342F5DC38BD00BF24
:1061F0002DE9F04F15460268DFF818A289B0966ABB
:10620000044606919846564540F0FA806B681B7923
:1062100003F0100303F0FF06002B5FD04FEAC80322
:1062200000260793794B059338E06B68B3F91000AB
:1062300086423CDA2B680FFA86F9754A1B6A93424C
:1062400047D16B685B6953F8267021683B7AD1F8B7
:1062500028B0D34535D10022CDF8048020460092E5
:10626000D1F82CB04946D8472368D3F828B0D34595
:1062700020D1E2683846D7F800E02346CDF8088000
:1062800001361768002207990F440699B7F9047080
:10629000CDF800900197DEF80870B8472B68059A92
:1062A0001B689342C1D0284698478642C2DB09B09A
:1062B000BDE8F08F00223B7A012120460092D847AA
:1062C000D7E70022012120460092D84721683B7A77
:1062D000C1E74946284698470746B6E74FEAC8024D
:1062E00023684146204607921B6A98472168434627
:1062F00032464F6A20463146B847E368079A1B6822
:106300001344B3F90630002BD1DD404BB146059361
:1063100058E06B68B3F91000B042C8DD2B683C4A06
:106320001B6A934267D16B685B6953F82670CDF89E
:1063300008900023D4F800E04246387A3146CDF880
:10634000009001902046DEF818B0D84721684346F7
:106350003246D1F824B020460021D84721683B7A44
:10636000D1F828B0D3453DD1CDF804800022CDF836
:1063700000902046D1F82CB03146D8472368D3F896
:1063800028B0D34526D1E1683846D7F800E0234647
:10639000CDF808800022D1F800C0079F0699674415
:1063A000B7F904708DE8C000DEF808700136B84710
:1063B000E368079F36B21B683B44B3F90630B3422B
:1063C0007FF775AF2B68059A1B689342A1D02846CA
:1063D0009847A1E73B7A0022CDF8009001212046A2
:1063E000D847D0E70121CDF8009000222046D847B9
:1063F00021683B7AB8E7314628469847074696E732
:106400000022012300921946B047FFE65501000023
:1064100049010000E54000002DE9F04F8D688146FC
:1064200095B08846E8690A9243681B7913F0050223
:1064300000F0B081B5F90E406CB16200AB68111983
:1064400003EB81035B685B681B795B0740F1CC81E0
:10645000013C24B26400D8F8042053681979987B71
:1064600001F0100303F0FF06003318BF0123870774
:1064700004960E933FD5049B002B40D1D9F80C60B5
:106480000A9D3368304603EBC503B3F90630012B90
:10649000D4BF002301234D07079337D4D9F80870E0
:1064A00099F81830391937F904A0002B00F09E81B3
:1064B0000A993368C9000D460D91B8F900102B44B4
:1064C0005D88DB882B44079D1BB25B1B91FBF3F5BA
:1064D00003FB1513C91A395399F81030D9071CD486
:1064E000395F514519D11546D9F81420AA4200F058
:1064F00065822A460EE02B7C0BB14607BBD5D9F846
:106500000C6000234D0707933046C7D599F810302B
:10651000D907E8D50A9BDB000D9301230993036893
:106520000D990B44B3F904300F93079B002B00F037
:10653000F381049B1BB9099B002B40F0B381079B9F
:10654000002B40F0DD810E9B002B40F0D981D9F863
:1065500008301B5F06930A9B4FF0000B0133DA46AD
:106560001A4610930F9B9200033B11921BB2129399
:106570006DE0B8F900301A460893D8F80430BA1A1A
:106580005B1BB2FA82F2B3FA83F352095B090592FC
:106590000B93049B002B00F0B380D9F800E0A74BCD
:1065A000DEF828600C939E4214D00B9A01212B7ABE
:1065B00048460092059AB047D9F800E0D8F808306C
:1065C00093F8303033B1049B23B999F810305E074B
:1065D00000F1EC800F9E059B002B75D00E9B002BCD
:1065E00072D0DEF804300122954948469847D9F820
:1065F0000030013ED3F828B036B20C9B9B4540F0EA
:10660000C180002E1EDDD5F800E04B460A98D8F870
:106610000810059A029028468DE85000DEF80840E0
:10662000A04700280EDD0E9B63B1089B4846854CB1
:106630009F42D9F8003084490EBF01220022214632
:106640005B689847089B9F427FD00AF1010A049B30
:106650000FFA8AF45BB9D9F80C300D9A1B68134411
:10666000079AB3F906309B1A9C4280F29C80079BE4
:10667000D8F8040003EB040B069B744A1F19036847
:106680001B6893422DD14368B3F910309F422EDA34
:10669000069A036802EB0A016D4A1B6A09B293422B
:1066A0002BD143685B6953F82150099B002B7FF481
:1066B00060AF29684A4600932846CE684146B047F5
:1066C00000287FF456AFC0E70A9A0FFA8BF10B98B7
:1066D0002B7A019200904846059ADEF82CB0D847F4
:1066E00085E798470346D8F804009F42D0DBC9F8F5
:1066F0001400002015B0BDE8F08F98470546D4E798
:10670000049B0FFA8BF6059802933146D9F800E006
:106710002A7A0C96019200904846DEF818600A9A90
:10672000B047D9F80010454E48460C9A0A9BD1F85C
:1067300024C00C960499E047D9F800E03F4BDEF8FE
:1067400028609E423FF43AAF2FE7D9F80C301099F9
:10675000B3F908208A427FF778AF6A681279D407C4
:1067600002D5D00640F1A5805B68119A9B58002B9A
:106770003FF46BAFD9F800304846BDF940101B6AB2
:10678000984762E70B9948462B7A059A00910121B8
:10679000D84736E70468134600924A46E468A047A3
:1067A000002840F09580D8F80400A0E7069B5B2104
:1067B000DEF8002048463133129E5344DBB2139377
:1067C0009047139BD9F8002048463A2B126834BFF3
:1067D00019462D219047D9F800305D2148461B68A5
:1067E0009847D9F800E0F6E6144634E60A9BB8F973
:1067F0000000DB001D460D93336803EB050C079B7F
:10680000C518BCF906305344AB4253460DDCDDF8E5
:106810001CB001331BB20B80B8F90000BCF9065064
:1068200000EB0B0E1D44AE45F3DACDF818A0DFF8EF
:106830001CB0DDF81CA0059420E000BFE54000007E
:10684000140F0020F80E00200C0F0020550100004E
:10685000490100005568B5F910003568C3EB000E1A
:106860000D9C30462544B5F90650CAEB0505AE45EA
:106870006DDA013B1BB20B80B8F900009842F8DBDF
:10688000002B5ED015682D685D45E3D01046A84703
:10689000D9F80870059BD8F80420F918D9F80C60CD
:1068A000FB5EDAE7D9F8003048460A991B6A984738
:1068B00045E62A46BDF94030D8F808104846FFF7AB
:1068C00097FCD9F80C30119A5B6843F80280BCE65B
:1068D000D8F808104B46D9F80C20C8690A9E0568FC
:1068E00002961468012204EBC604B8F90060B4F9FA
:1068F000044000960194AC68A047D8F80400F6E67E
:10690000049B43B3D9F80030002401224A49484689
:106910005B68069498471EE61168104600934A4645
:10692000CD684146A84700287FF403AE099B002BA1
:106930007FF4FFAD049B002B3FF409AE099B069347
:1069400009E6DDF818A0059CD9F80C00C4E5DDF8CF
:1069500018A0059CC0E5D9F800E0384FDEF82850B3
:10696000BD425FD100264FF0010A05230A9A029624
:10697000314600964846CDF804A0DEF81850A847E6
:10698000D9F800309D6ABD4243D10A9F00225D6A5A
:1069900048463B461146A8470F9BD8F804004FF0E5
:1069A000FF369A1ED8F8081005684B4612B20297B7
:1069B000009601920122AD68A847C8E541680A9F88
:1069C00051F82710884502D0FB000D93A5E503F090
:1069D000020303F0FF018BB10020537A184310F03B
:1069E000FF03099304D199F810309F077FF581AE1A
:1069F0000A9BD9F80C00DB000D9390E52A68284625
:106A000000910123D56841464A46A847D8F804209A
:106A1000E3E753460096524605214846A847D9F871
:106A20000030B2E71A460093052101234846A847E3
:106A3000D9F800E096E700BF180F0020E5400000FD
:106A40002DE9F84F884689680446B1F90EA08E6892
:106A50000AEB4A094FEA890906EB09035B685B68A0
:106A60001B79580703D50AF1FF3AA9F10C09E06830
:106A7000B144237CB0F90870013F5745A8BF574681
:106A80001A0702D5002F51D0013F002F52DDC7EB6E
:106A90000A0A00250AEB4A0A4FEA8A0A03E0D8F8F4
:106AA0000810237C8E6813F0020F56444FEA850BC2
:106AB00005D0E3685B6853F825309E4208D02BB2BE
:106AC00072682046FFF794FBE3685B6843F80B604D
:106AD00001350AF10C0AAF42E1D1E0683AB2BE00DA
:106AE000BD1C428149462046FFF796FCE3685B687F
:106AF00043F80680E368B3F90820AA4213DDAE002C
:106B000000275A6829B220460135925932B12368CC
:106B10001B6A9847E3685B689F51E368B3F90820F4
:106B20000436AA42EDDC0020BDE8F88F3E4602257F
:106B30003A46D6E73AB2BD1CBE00D2E7F8B50368C4
:106B4000002B2CDD0E460446002507E03846314672
:106B5000FFF776FF01352368AB4210DD636853F819
:106B600025703B7C13F0210FF0D13946304600F000
:106B7000D3FB0028EAD101352368AB42EEDC002BC1
:106B80000DDD00257068012362683146076852F800
:106B900025201D447F68B8472368AB42F2DC002003
:106BA000F8BD00BF30B4B0F90840A14208DA8B004C
:106BB000002501314268A142D55003F10403F8D108
:106BC00030BC7047836893F8303010B50C4682B003
:106BD0005BB1194B186804F029FC30B1313C072334
:106BE000ADF806408DF8043012E0144B00221B680B
:106BF0005868034659780233A14214D001320A2A58
:106C0000F8D100224FF6FF738DF80420ADF806305E
:106C1000BDF804200020BDF8063062F30F0063F3D6
:106C20001F4002B010BD10F812204FF6FF738DF810
:106C30000420ADF80630EBE72014002024140020D7
